{
  "contractName": "Remittance",
  "abi": [
    {
      "constant": true,
      "inputs": [],
      "name": "ownersCommission",
      "outputs": [
        {
          "name": "",
          "type": "uint256"
        }
      ],
      "payable": false,
      "stateMutability": "view",
      "type": "function"
    },
    {
      "constant": true,
      "inputs": [],
      "name": "owner",
      "outputs": [
        {
          "name": "",
          "type": "address"
        }
      ],
      "payable": false,
      "stateMutability": "view",
      "type": "function"
    },
    {
      "constant": true,
      "inputs": [
        {
          "name": "",
          "type": "bytes32"
        }
      ],
      "name": "remittances",
      "outputs": [
        {
          "name": "from",
          "type": "address"
        },
        {
          "name": "recieverID",
          "type": "bytes32"
        },
        {
          "name": "amount",
          "type": "uint256"
        },
        {
          "name": "timeLimit",
          "type": "uint256"
        },
        {
          "name": "isEntity",
          "type": "bool"
        }
      ],
      "payable": false,
      "stateMutability": "view",
      "type": "function"
    },
    {
      "constant": true,
      "inputs": [
        {
          "name": "",
          "type": "bytes32"
        }
      ],
      "name": "localCurrency",
      "outputs": [
        {
          "name": "",
          "type": "uint256"
        }
      ],
      "payable": false,
      "stateMutability": "view",
      "type": "function"
    },
    {
      "inputs": [],
      "payable": false,
      "stateMutability": "nonpayable",
      "type": "constructor"
    },
    {
      "anonymous": false,
      "inputs": [
        {
          "indexed": false,
          "name": "hash",
          "type": "bytes32"
        },
        {
          "indexed": false,
          "name": "from",
          "type": "address"
        },
        {
          "indexed": false,
          "name": "_recieverID",
          "type": "bytes32"
        },
        {
          "indexed": false,
          "name": "value",
          "type": "uint256"
        },
        {
          "indexed": false,
          "name": "timeLimit",
          "type": "uint256"
        }
      ],
      "name": "LogTransactionCreated",
      "type": "event"
    },
    {
      "anonymous": false,
      "inputs": [
        {
          "indexed": false,
          "name": "hash",
          "type": "bytes32"
        },
        {
          "indexed": false,
          "name": "from",
          "type": "address"
        },
        {
          "indexed": false,
          "name": "_recieverID",
          "type": "bytes32"
        },
        {
          "indexed": false,
          "name": "value",
          "type": "uint256"
        }
      ],
      "name": "LogRemittanceReceived",
      "type": "event"
    },
    {
      "anonymous": false,
      "inputs": [
        {
          "indexed": false,
          "name": "hash",
          "type": "bytes32"
        },
        {
          "indexed": false,
          "name": "_to",
          "type": "address"
        },
        {
          "indexed": false,
          "name": "value",
          "type": "uint256"
        }
      ],
      "name": "LogReturnFundsAfterTimeLimit",
      "type": "event"
    },
    {
      "anonymous": false,
      "inputs": [
        {
          "indexed": false,
          "name": "value",
          "type": "uint256"
        }
      ],
      "name": "LogOwnerCommissionWithdraw",
      "type": "event"
    },
    {
      "constant": true,
      "inputs": [
        {
          "name": "_passOne",
          "type": "bytes32"
        },
        {
          "name": "_passTwo",
          "type": "bytes32"
        }
      ],
      "name": "giveMeSomeHash",
      "outputs": [
        {
          "name": "initialHash",
          "type": "bytes32"
        }
      ],
      "payable": false,
      "stateMutability": "pure",
      "type": "function"
    },
    {
      "constant": false,
      "inputs": [
        {
          "name": "_hashedPass",
          "type": "bytes32"
        },
        {
          "name": "_timeLimit",
          "type": "uint256"
        },
        {
          "name": "_recieverID",
          "type": "bytes32"
        }
      ],
      "name": "createTransaction",
      "outputs": [],
      "payable": true,
      "stateMutability": "payable",
      "type": "function"
    },
    {
      "constant": false,
      "inputs": [
        {
          "name": "_passOne",
          "type": "bytes32"
        },
        {
          "name": "_passTwo",
          "type": "bytes32"
        },
        {
          "name": "_recieverID",
          "type": "bytes32"
        }
      ],
      "name": "exchangeShop",
      "outputs": [],
      "payable": true,
      "stateMutability": "payable",
      "type": "function"
    },
    {
      "constant": false,
      "inputs": [
        {
          "name": "_passOne",
          "type": "bytes32"
        },
        {
          "name": "_passTwo",
          "type": "bytes32"
        }
      ],
      "name": "returnFundsAfterTimeLimit",
      "outputs": [],
      "payable": false,
      "stateMutability": "nonpayable",
      "type": "function"
    },
    {
      "constant": false,
      "inputs": [],
      "name": "ownerWithdraw",
      "outputs": [],
      "payable": false,
      "stateMutability": "nonpayable",
      "type": "function"
    },
    {
      "constant": false,
      "inputs": [],
      "name": "kill",
      "outputs": [],
      "payable": false,
      "stateMutability": "nonpayable",
      "type": "function"
    }
  ],
  "bytecode": "0x6060604052341561000f57600080fd5b336000806101000a81548173ffffffffffffffffffffffffffffffffffffffff021916908373ffffffffffffffffffffffffffffffffffffffff160217905550610ccb8061005e6000396000f3006060604052600436106100a4576000357c0100000000000000000000000000000000000000000000000000000000900463ffffffff1680631171a348146100a957806312019f6f146100db57806341c0e1b5146101045780634311de8f14610119578063572cc6041461012e578063598073dd146101645780638da5cb5b146101985780639c922d2a146101ed578063ee816a3b1461027c578063eea731b9146102cc575b600080fd5b6100d960048080356000191690602001909190803590602001909190803560001916906020019091905050610307565b005b34156100e657600080fd5b6100ee6104d7565b6040518082815260200191505060405180910390f35b341561010f57600080fd5b6101176104dd565b005b341561012457600080fd5b61012c610551565b005b6101626004808035600019169060200190919080356000191690602001909190803560001916906020019091905050610669565b005b341561016f57600080fd5b61019660048080356000191690602001909190803560001916906020019091905050610954565b005b34156101a357600080fd5b6101ab610b85565b604051808273ffffffffffffffffffffffffffffffffffffffff1673ffffffffffffffffffffffffffffffffffffffff16815260200191505060405180910390f35b34156101f857600080fd5b610212600480803560001916906020019091905050610baa565b604051808673ffffffffffffffffffffffffffffffffffffffff1673ffffffffffffffffffffffffffffffffffffffff1681526020018560001916600019168152602001848152602001838152602001821515151581526020019550505050505060405180910390f35b341561028757600080fd5b6102ae60048080356000191690602001909190803560001916906020019091905050610c0d565b60405180826000191660001916815260200191505060405180910390f35b34156102d757600080fd5b6102f1600480803560001916906020019091905050610c45565b6040518082815260200191505060405180910390f35b60003411151561031657600080fd5b61031f83610c5d565b15151561032b57600080fd5b61ea60821115151561033c57600080fd5b3360026000856000191660001916815260200190815260200160002060000160006101000a81548173ffffffffffffffffffffffffffffffffffffffff021916908373ffffffffffffffffffffffffffffffffffffffff160217905550806002600085600019166000191681526020019081526020016000206001018160001916905550346002600085600019166000191681526020019081526020016000206002018190555081420160026000856000191660001916815260200190815260200160002060030181905550600160026000856000191660001916815260200190815260200160002060040160006101000a81548160ff0219169083151502179055507fa61311b73979f23d1c1ff9b57b75ec2f02a6464307e2ddcbfe44489d0921f85a83338334866040518086600019166000191681526020018573ffffffffffffffffffffffffffffffffffffffff1673ffffffffffffffffffffffffffffffffffffffff16815260200184600019166000191681526020018381526020018281526020019550505050505060405180910390a1505050565b60015481565b6000809054906101000a900473ffffffffffffffffffffffffffffffffffffffff1673ffffffffffffffffffffffffffffffffffffffff163373ffffffffffffffffffffffffffffffffffffffff1614151561053857600080fd5b3073ffffffffffffffffffffffffffffffffffffffff16ff5b60008060009054906101000a900473ffffffffffffffffffffffffffffffffffffffff1673ffffffffffffffffffffffffffffffffffffffff163373ffffffffffffffffffffffffffffffffffffffff161415156105ae57600080fd5b60006001541115156105bf57600080fd5b600154905060006001819055506000809054906101000a900473ffffffffffffffffffffffffffffffffffffffff1673ffffffffffffffffffffffffffffffffffffffff166108fc829081150290604051600060405180830381858888f19350505050151561062d57600080fd5b7f5442b458f67b8c9689bafdc3987073fc8e324e120f8f6def82a299c9ec60052f6001546040518082815260200191505060405180910390a150565b60008060008060009054906101000a900473ffffffffffffffffffffffffffffffffffffffff1673ffffffffffffffffffffffffffffffffffffffff163373ffffffffffffffffffffffffffffffffffffffff161415156106c957600080fd5b8585604051808360001916600019168152602001826000191660001916815260200192505050604051809103902092508360001916600260008560001916600019168152602001908152602001600020600101546000191614151561072d57600080fd5b61075460026000856000191660001916815260200190815260200160002060030154610c92565b151561075f57600080fd5b60326002600085600019166000191681526020019081526020016000206002015481151561078957fe5b046001600082825401925050819055506032600260008560001916600019168152602001908152602001600020600201548115156107c357fe5b046002600085600019166000191681526020019081526020016000206002015403915060026000846000191660001916815260200190815260200160002060000160009054906101000a900473ffffffffffffffffffffffffffffffffffffffff1690508160036000866000191660001916815260200190815260200160002060008282540192505081905550600260008460001916600019168152602001908152602001600020600080820160006101000a81549073ffffffffffffffffffffffffffffffffffffffff02191690556001820160009055600282016000905560038201600090556004820160006101000a81549060ff021916905550507f2014709e422e783012c5fbfac94e0f236a8a413823ac3832b1cb8f1340ee3d76838286856040518085600019166000191681526020018473ffffffffffffffffffffffffffffffffffffffff1673ffffffffffffffffffffffffffffffffffffffff168152602001836000191660001916815260200182815260200194505050505060405180910390a1505050505050565b6000808383604051808360001916600019168152602001826000191660001916815260200192505050604051809103902091503373ffffffffffffffffffffffffffffffffffffffff1660026000846000191660001916815260200190815260200160002060000160009054906101000a900473ffffffffffffffffffffffffffffffffffffffff1673ffffffffffffffffffffffffffffffffffffffff161415156109ff57600080fd5b610a2660026000846000191660001916815260200190815260200160002060030154610c92565b151515610a3257600080fd5b600260008360001916600019168152602001908152602001600020600201549050600260008360001916600019168152602001908152602001600020600080820160006101000a81549073ffffffffffffffffffffffffffffffffffffffff02191690556001820160009055600282016000905560038201600090556004820160006101000a81549060ff021916905550503373ffffffffffffffffffffffffffffffffffffffff166108fc829081150290604051600060405180830381858888f193505050501515610b0457600080fd5b7f77888d4012fc5fb340f244544c89219cad82d8d982524d58a077efa94ab0bd018233836040518084600019166000191681526020018373ffffffffffffffffffffffffffffffffffffffff1673ffffffffffffffffffffffffffffffffffffffff168152602001828152602001935050505060405180910390a150505050565b6000809054906101000a900473ffffffffffffffffffffffffffffffffffffffff1681565b60026020528060005260406000206000915090508060000160009054906101000a900473ffffffffffffffffffffffffffffffffffffffff16908060010154908060020154908060030154908060040160009054906101000a900460ff16905085565b600082826040518083600019166000191681526020018260001916600019168152602001925050506040518091039020905092915050565b60036020528060005260406000206000915090505481565b600060026000836000191660001916815260200190815260200160002060040160009054906101000a900460ff169050919050565b60008142111590509190505600a165627a7a72305820d40d938406167c59caf17cbe4ef3a7a7f8d76faa5c220eeee430375de5a3feda0029",
  "source": "pragma solidity ^0.4.19;\r\n\r\ncontract Remittance {\r\n\t\r\n\taddress public owner;\r\n\tuint public ownersCommission;\r\n\r\n\tmapping(bytes32 => Transaction) public remittances;\r\n\r\n\t// Just for keeping the localvalues. This is actually happening offline\t\r\n\tmapping (bytes32 => uint) public localCurrency;\r\n\t\r\n\r\n\tfunction Remittance () public {\r\n\t\towner = msg.sender;\r\n\t}\t\r\n\r\n\tmodifier onlyOwner() { \r\n\t\trequire(msg.sender == owner); \r\n\t\t_; \r\n\t}\r\n\t\r\n\tstruct Transaction {\r\n\t\t\r\n\t\taddress from;\r\n\t\tbytes32 recieverID;\r\n\t\tuint amount;\r\n\t\tuint timeLimit;\t\t\t\r\n\t\tbool isEntity;\t\r\n\t}\r\n\t\r\n\tevent LogTransactionCreated(bytes32 hash, address from, bytes32 _recieverID, uint value ,uint timeLimit);\r\n\tevent LogRemittanceReceived(bytes32 hash, address from, bytes32 _recieverID, uint value);\r\n\tevent LogReturnFundsAfterTimeLimit(bytes32 hash, address _to, uint value);\r\n\tevent LogOwnerCommissionWithdraw(uint value);\r\n\r\n\t// For testing the contract..\r\n\tfunction giveMeSomeHash(bytes32 _passOne, bytes32 _passTwo) public pure returns (bytes32 initialHash)\t{\r\n\r\n    \treturn keccak256(_passOne, _passTwo);\r\n\t}\r\n\r\n\t// Checks is the time limit reached\r\n\tfunction checkWithinTimeLimit(uint _time) view internal returns(bool) { \r\n\t\treturn now <= _time; \r\n\t}\t\r\n\r\n\t// Checks is there a transaction with the same passwords\r\n\tfunction checkIsEntity(bytes32 entityAddress) internal view returns(bool isIndeed) {\r\n      \treturn remittances[entityAddress].isEntity;\r\n  }\r\n\r\n  \t// Creates a transaction from owner to \"Bobs\" address..\r\n\tfunction createTransaction(bytes32 _hashedPass, uint _timeLimit, bytes32 _recieverID) public payable {\r\n\r\n\t\trequire(msg.value > 0);\r\n\t\trequire(!checkIsEntity(_hashedPass));\r\n\t\trequire(_timeLimit <= 60000);\t\t\r\n\r\n\t\tremittances[_hashedPass].from = msg.sender;\r\n\t\tremittances[_hashedPass].recieverID = _recieverID;\r\n\t\tremittances[_hashedPass].amount = msg.value;\r\n\t\tremittances[_hashedPass].timeLimit = now + _timeLimit;\r\n\t\tremittances[_hashedPass].isEntity = true;\r\n\r\n\t\tLogTransactionCreated(_hashedPass, msg.sender, _recieverID, msg.value, _timeLimit);\r\n\t}\r\n\r\n\tfunction exchangeShop(bytes32 _passOne, bytes32 _passTwo, bytes32 _recieverID) public payable onlyOwner(){\r\n\r\n\t\tbytes32 hashToCheck = keccak256(_passOne, _passTwo);\r\n\r\n\t\trequire(remittances[hashToCheck].recieverID == _recieverID);\r\n\t\trequire(checkWithinTimeLimit(remittances[hashToCheck].timeLimit));\r\n\r\n\t\t// Here i can add some \"exchange\" commission to contractOwner (me).\r\n\t\townersCommission += remittances[hashToCheck].amount / 50;\r\n\r\n\t\tuint amount = remittances[hashToCheck].amount - remittances[hashToCheck].amount / 50;\r\n\r\n\t\t// Just for the LogRemittanceReceived.\r\n\t\taddress from = remittances[hashToCheck].from;\t\r\n\r\n\t\t// Just for tracking the local currency transactions. This is actually happening offline..\t\r\n\t\tlocalCurrency[_recieverID] += amount;\r\n\r\n\t\tdelete(remittances[hashToCheck]);\r\n\t\t\r\n\t\tLogRemittanceReceived(hashToCheck, from, _recieverID, amount);\r\n\t}\r\n\r\n\tfunction returnFundsAfterTimeLimit(bytes32 _passOne, bytes32 _passTwo) public {\r\n\r\n\t\tbytes32 hashToCheck = keccak256(_passOne, _passTwo);\r\n\r\n\t\trequire(remittances[hashToCheck].from == msg.sender);\r\n\t\trequire(!checkWithinTimeLimit(remittances[hashToCheck].timeLimit));\r\n\r\n\t\tuint amount = remittances[hashToCheck].amount;\r\n\t\tdelete(remittances[hashToCheck]);\r\n\t\tmsg.sender.transfer(amount);\r\n\r\n\t\tLogReturnFundsAfterTimeLimit(hashToCheck, msg.sender, amount);\r\n\t}\r\n\r\n\t// Owner can withdraw commissions\r\n\tfunction ownerWithdraw() public onlyOwner() {\r\n\t\trequire(ownersCommission > 0);\r\n\r\n\t\t// Im not sure if necessary..\r\n\t\tuint temp = ownersCommission;\r\n\t\townersCommission = 0;\r\n\t\towner.transfer(temp);\r\n\r\n\t\tLogOwnerCommissionWithdraw(ownersCommission);\r\n\t\t\r\n\t}\r\n\r\n\t// When killed all pending transactions are locked here. I don' know how to fixed it.\r\n\tfunction kill() public onlyOwner() {\r\n\t\tselfdestruct(this);\t\t\r\n\t}\t\r\n}\r\n",
  "sourcePath": "D:\\DAPPS\\Projects\\Remittance\\contracts\\Remittance.sol",
  "compiler": {
    "name": "solc",
    "version": "0.4.19+commit.c4cbbb05.Emscripten.clang"
  },
  "schemaVersion": "2.0.0",
  "updatedAt": "2018-03-12T06:42:00.650Z"
}