{
  "contractName": "Remittance",
  "abi": [
    {
      "constant": true,
      "inputs": [],
      "name": "ownersCommission",
      "outputs": [
        {
          "name": "",
          "type": "uint256"
        }
      ],
      "payable": false,
      "stateMutability": "view",
      "type": "function"
    },
    {
      "constant": true,
      "inputs": [],
      "name": "owner",
      "outputs": [
        {
          "name": "",
          "type": "address"
        }
      ],
      "payable": false,
      "stateMutability": "view",
      "type": "function"
    },
    {
      "constant": true,
      "inputs": [
        {
          "name": "",
          "type": "bytes32"
        }
      ],
      "name": "remittances",
      "outputs": [
        {
          "name": "from",
          "type": "address"
        },
        {
          "name": "recieverID",
          "type": "bytes32"
        },
        {
          "name": "amount",
          "type": "uint256"
        },
        {
          "name": "timeLimit",
          "type": "uint256"
        },
        {
          "name": "isEntity",
          "type": "bool"
        }
      ],
      "payable": false,
      "stateMutability": "view",
      "type": "function"
    },
    {
      "constant": true,
      "inputs": [
        {
          "name": "",
          "type": "bytes32"
        }
      ],
      "name": "localCurrency",
      "outputs": [
        {
          "name": "",
          "type": "uint256"
        }
      ],
      "payable": false,
      "stateMutability": "view",
      "type": "function"
    },
    {
      "inputs": [],
      "payable": false,
      "stateMutability": "nonpayable",
      "type": "constructor"
    },
    {
      "anonymous": false,
      "inputs": [
        {
          "indexed": false,
          "name": "hash",
          "type": "bytes32"
        },
        {
          "indexed": false,
          "name": "from",
          "type": "address"
        },
        {
          "indexed": false,
          "name": "_recieverID",
          "type": "bytes32"
        },
        {
          "indexed": false,
          "name": "value",
          "type": "uint256"
        },
        {
          "indexed": false,
          "name": "timeLimit",
          "type": "uint256"
        }
      ],
      "name": "LogTransactionCreated",
      "type": "event"
    },
    {
      "anonymous": false,
      "inputs": [
        {
          "indexed": false,
          "name": "hash",
          "type": "bytes32"
        },
        {
          "indexed": false,
          "name": "from",
          "type": "address"
        },
        {
          "indexed": false,
          "name": "_recieverID",
          "type": "bytes32"
        },
        {
          "indexed": false,
          "name": "value",
          "type": "uint256"
        }
      ],
      "name": "LogRemittanceReceived",
      "type": "event"
    },
    {
      "anonymous": false,
      "inputs": [
        {
          "indexed": false,
          "name": "hash",
          "type": "bytes32"
        },
        {
          "indexed": false,
          "name": "_to",
          "type": "address"
        },
        {
          "indexed": false,
          "name": "value",
          "type": "uint256"
        }
      ],
      "name": "LogReturnFundsAfterTimeLimit",
      "type": "event"
    },
    {
      "anonymous": false,
      "inputs": [
        {
          "indexed": false,
          "name": "value",
          "type": "uint256"
        }
      ],
      "name": "LogOwnerCommissionWithdraw",
      "type": "event"
    },
    {
      "constant": false,
      "inputs": [
        {
          "name": "_fee",
          "type": "uint256"
        }
      ],
      "name": "setFee",
      "outputs": [],
      "payable": false,
      "stateMutability": "nonpayable",
      "type": "function"
    },
    {
      "constant": false,
      "inputs": [
        {
          "name": "_maxTimeLimit",
          "type": "uint256"
        }
      ],
      "name": "setMaxTimeLimit",
      "outputs": [],
      "payable": false,
      "stateMutability": "nonpayable",
      "type": "function"
    },
    {
      "constant": true,
      "inputs": [
        {
          "name": "_passOne",
          "type": "bytes32"
        },
        {
          "name": "_passTwo",
          "type": "bytes32"
        }
      ],
      "name": "giveMeSomeHash",
      "outputs": [
        {
          "name": "initialHash",
          "type": "bytes32"
        }
      ],
      "payable": false,
      "stateMutability": "pure",
      "type": "function"
    },
    {
      "constant": false,
      "inputs": [
        {
          "name": "_hashedPass",
          "type": "bytes32"
        },
        {
          "name": "_timeLimit",
          "type": "uint256"
        },
        {
          "name": "_recieverID",
          "type": "bytes32"
        }
      ],
      "name": "createTransaction",
      "outputs": [],
      "payable": true,
      "stateMutability": "payable",
      "type": "function"
    },
    {
      "constant": false,
      "inputs": [
        {
          "name": "_passOne",
          "type": "bytes32"
        },
        {
          "name": "_passTwo",
          "type": "bytes32"
        },
        {
          "name": "_recieverID",
          "type": "bytes32"
        }
      ],
      "name": "exchangeShop",
      "outputs": [],
      "payable": true,
      "stateMutability": "payable",
      "type": "function"
    },
    {
      "constant": false,
      "inputs": [
        {
          "name": "_passOne",
          "type": "bytes32"
        },
        {
          "name": "_passTwo",
          "type": "bytes32"
        }
      ],
      "name": "returnFundsAfterTimeLimit",
      "outputs": [],
      "payable": false,
      "stateMutability": "nonpayable",
      "type": "function"
    },
    {
      "constant": false,
      "inputs": [],
      "name": "ownerWithdraw",
      "outputs": [],
      "payable": false,
      "stateMutability": "nonpayable",
      "type": "function"
    },
    {
      "constant": false,
      "inputs": [],
      "name": "kill",
      "outputs": [],
      "payable": false,
      "stateMutability": "nonpayable",
      "type": "function"
    }
  ],
  "bytecode": "0x6060604052341561000f57600080fd5b336000806101000a81548173ffffffffffffffffffffffffffffffffffffffff021916908373ffffffffffffffffffffffffffffffffffffffff160217905550610e488061005e6000396000f3006060604052600436106100ba576000357c0100000000000000000000000000000000000000000000000000000000900463ffffffff1680631171a348146100bf57806312019f6f146100f157806341c0e1b51461011a5780634311de8f1461012f57806348e8da4414610144578063572cc60414610167578063598073dd1461019d57806369fe0e2d146101d15780638da5cb5b146101f45780639c922d2a14610249578063ee816a3b146102d8578063eea731b914610328575b600080fd5b6100ef60048080356000191690602001909190803590602001909190803560001916906020019091905050610363565b005b34156100fc57600080fd5b610104610533565b6040518082815260200191505060405180910390f35b341561012557600080fd5b61012d610539565b005b341561013a57600080fd5b6101426105ad565b005b341561014f57600080fd5b61016560048080359060200190919050506106c5565b005b61019b600480803560001916906020019091908035600019169060200190919080356000191690602001909190505061072a565b005b34156101a857600080fd5b6101cf60048080356000191690602001909190803560001916906020019091905050610a49565b005b34156101dc57600080fd5b6101f26004808035906020019091905050610caa565b005b34156101ff57600080fd5b610207610d0f565b604051808273ffffffffffffffffffffffffffffffffffffffff1673ffffffffffffffffffffffffffffffffffffffff16815260200191505060405180910390f35b341561025457600080fd5b61026e600480803560001916906020019091905050610d34565b604051808673ffffffffffffffffffffffffffffffffffffffff1673ffffffffffffffffffffffffffffffffffffffff1681526020018560001916600019168152602001848152602001838152602001821515151581526020019550505050505060405180910390f35b34156102e357600080fd5b61030a60048080356000191690602001909190803560001916906020019091905050610d97565b60405180826000191660001916815260200191505060405180910390f35b341561033357600080fd5b61034d600480803560001916906020019091905050610dcf565b6040518082815260200191505060405180910390f35b60003411151561037257600080fd5b61037b83610de7565b15151561038757600080fd5b600254821115151561039857600080fd5b3360046000856000191660001916815260200190815260200160002060000160006101000a81548173ffffffffffffffffffffffffffffffffffffffff021916908373ffffffffffffffffffffffffffffffffffffffff160217905550806004600085600019166000191681526020019081526020016000206001018160001916905550346004600085600019166000191681526020019081526020016000206002018190555081420160046000856000191660001916815260200190815260200160002060030181905550600160046000856000191660001916815260200190815260200160002060040160006101000a81548160ff0219169083151502179055507fa61311b73979f23d1c1ff9b57b75ec2f02a6464307e2ddcbfe44489d0921f85a83338334866040518086600019166000191681526020018573ffffffffffffffffffffffffffffffffffffffff1673ffffffffffffffffffffffffffffffffffffffff16815260200184600019166000191681526020018381526020018281526020019550505050505060405180910390a1505050565b60035481565b6000809054906101000a900473ffffffffffffffffffffffffffffffffffffffff1673ffffffffffffffffffffffffffffffffffffffff163373ffffffffffffffffffffffffffffffffffffffff1614151561059457600080fd5b3073ffffffffffffffffffffffffffffffffffffffff16ff5b60008060009054906101000a900473ffffffffffffffffffffffffffffffffffffffff1673ffffffffffffffffffffffffffffffffffffffff163373ffffffffffffffffffffffffffffffffffffffff1614151561060a57600080fd5b600060035411151561061b57600080fd5b600354905060006003819055506000809054906101000a900473ffffffffffffffffffffffffffffffffffffffff1673ffffffffffffffffffffffffffffffffffffffff166108fc829081150290604051600060405180830381858888f19350505050151561068957600080fd5b7f5442b458f67b8c9689bafdc3987073fc8e324e120f8f6def82a299c9ec60052f6003546040518082815260200191505060405180910390a150565b6000809054906101000a900473ffffffffffffffffffffffffffffffffffffffff1673ffffffffffffffffffffffffffffffffffffffff163373ffffffffffffffffffffffffffffffffffffffff1614151561072057600080fd5b8060028190555050565b60008060008585600082826040518083600019166000191681526020018260001916600019168152602001925050506040518091039020905060046000826000191660001916815260200190815260200160002060030154421115151561079057600080fd5b6000809054906101000a900473ffffffffffffffffffffffffffffffffffffffff1673ffffffffffffffffffffffffffffffffffffffff163373ffffffffffffffffffffffffffffffffffffffff161415156107eb57600080fd5b8888604051808360001916600019168152602001826000191660001916815260200192505050604051809103902095508660001916600460008860001916600019168152602001908152602001600020600101546000191614151561084f57600080fd5b6001546004600088600019166000191681526020019081526020016000206002015481151561087a57fe5b04600360008282540192505081905550600154600460008860001916600019168152602001908152602001600020600201548115156108b557fe5b046004600088600019166000191681526020019081526020016000206002015403945060046000876000191660001916815260200190815260200160002060000160009054906101000a900473ffffffffffffffffffffffffffffffffffffffff1693508460056000896000191660001916815260200190815260200160002060008282540192505081905550600460008760001916600019168152602001908152602001600020600080820160006101000a81549073ffffffffffffffffffffffffffffffffffffffff02191690556001820160009055600282016000905560038201600090556004820160006101000a81549060ff021916905550507f2014709e422e783012c5fbfac94e0f236a8a413823ac3832b1cb8f1340ee3d76868589886040518085600019166000191681526020018473ffffffffffffffffffffffffffffffffffffffff1673ffffffffffffffffffffffffffffffffffffffff168152602001836000191660001916815260200182815260200194505050505060405180910390a1505050505050505050565b600080838360008282604051808360001916600019168152602001826000191660001916815260200192505050604051809103902090506004600082600019166000191681526020019081526020016000206003015442111515610aac57600080fd5b8686604051808360001916600019168152602001826000191660001916815260200192505050604051809103902094503373ffffffffffffffffffffffffffffffffffffffff1660046000876000191660001916815260200190815260200160002060000160009054906101000a900473ffffffffffffffffffffffffffffffffffffffff1673ffffffffffffffffffffffffffffffffffffffff16141515610b5457600080fd5b600460008660001916600019168152602001908152602001600020600201549350600460008660001916600019168152602001908152602001600020600080820160006101000a81549073ffffffffffffffffffffffffffffffffffffffff02191690556001820160009055600282016000905560038201600090556004820160006101000a81549060ff021916905550503373ffffffffffffffffffffffffffffffffffffffff166108fc859081150290604051600060405180830381858888f193505050501515610c2657600080fd5b7f77888d4012fc5fb340f244544c89219cad82d8d982524d58a077efa94ab0bd018533866040518084600019166000191681526020018373ffffffffffffffffffffffffffffffffffffffff1673ffffffffffffffffffffffffffffffffffffffff168152602001828152602001935050505060405180910390a150505050505050565b6000809054906101000a900473ffffffffffffffffffffffffffffffffffffffff1673ffffffffffffffffffffffffffffffffffffffff163373ffffffffffffffffffffffffffffffffffffffff16141515610d0557600080fd5b8060018190555050565b6000809054906101000a900473ffffffffffffffffffffffffffffffffffffffff1681565b60046020528060005260406000206000915090508060000160009054906101000a900473ffffffffffffffffffffffffffffffffffffffff16908060010154908060020154908060030154908060040160009054906101000a900460ff16905085565b600082826040518083600019166000191681526020018260001916600019168152602001925050506040518091039020905092915050565b60056020528060005260406000206000915090505481565b600060046000836000191660001916815260200190815260200160002060040160009054906101000a900460ff1690509190505600a165627a7a72305820fcd401378e9eac2d885ca90886b23e5743e917cee80b73d1c9580d07a835514b0029",
  "source": "pragma solidity ^0.4.19;\r\n\r\ncontract Remittance {\r\n\t\r\n\taddress public owner;\r\n\tuint private fee;\r\n\tuint private maxTimeLimit;\r\n\tuint public ownersCommission;\r\n\r\n\tmapping(bytes32 => Transaction) public remittances;\r\n\r\n\t// Just for keeping the localvalues. This is actually happens offline\t\r\n\tmapping (bytes32 => uint) public localCurrency;\r\n\t\r\n\r\n\tfunction Remittance () public {\r\n\t\towner = msg.sender;\r\n\t}\t\r\n\r\n\tfunction setFee (uint _fee) public onlyOwner(){\r\n\t\tfee = _fee;\r\n\t}\r\n\r\n\tfunction setMaxTimeLimit(uint _maxTimeLimit) public onlyOwner(){\r\n\t\tmaxTimeLimit = _maxTimeLimit;\r\n\t}\r\n\r\n\tmodifier onlyOwner() { \r\n\t\trequire(msg.sender == owner); \r\n\t\t_; \r\n\t}\r\n\t\r\n\tstruct Transaction {\r\n\t\t\r\n\t\taddress from;\r\n\t\tbytes32 recieverID;\r\n\t\tuint amount;\r\n\t\tuint timeLimit;\t\t\t\r\n\t\tbool isEntity;\t\r\n\t}\r\n\t\r\n\tevent LogTransactionCreated(bytes32 hash, address from, bytes32 _recieverID, uint value ,uint timeLimit);\r\n\tevent LogRemittanceReceived(bytes32 hash, address from, bytes32 _recieverID, uint value);\r\n\tevent LogReturnFundsAfterTimeLimit(bytes32 hash, address _to, uint value);\r\n\tevent LogOwnerCommissionWithdraw(uint value);\r\n\r\n\t// For testing the contract..\r\n\tfunction giveMeSomeHash(bytes32 _passOne, bytes32 _passTwo) public pure returns (bytes32 initialHash)\t{\r\n\r\n    \treturn keccak256(_passOne, _passTwo);\r\n\t}\r\n\r\n\t// Checks is the time limit reached\r\n\tmodifier onlyWithinTimeLimit(bytes32 _passOne, bytes32 _passTwo) { \r\n\t\tbytes32 hashToCheck = keccak256(_passOne, _passTwo);\r\n\t\trequire (now <= remittances[hashToCheck].timeLimit);\r\n\t\t_;\t\t\r\n\t}\r\n\r\n\tmodifier onlyAfterTimeLimit(bytes32 _passOne, bytes32 _passTwo) { \r\n\t\tbytes32 hashToCheck = keccak256(_passOne, _passTwo);\r\n\t\trequire (now > remittances[hashToCheck].timeLimit);\r\n\t\t_;\t\t\r\n\t}\t\r\n\r\n\t// Checks is there a transaction with the same passwords\r\n\tfunction checkIsEntity(bytes32 entityAddress) internal view returns(bool) {\r\n      \treturn remittances[entityAddress].isEntity;\r\n  }\r\n\r\n  \t// Creates a transaction from owner to \"Bobs\" address..\r\n\tfunction createTransaction(bytes32 _hashedPass, uint _timeLimit, bytes32 _recieverID) public payable {\r\n\r\n\t\trequire(msg.value > 0);\r\n\t\trequire(!checkIsEntity(_hashedPass));\r\n\t\trequire(_timeLimit <= maxTimeLimit);\t\t\r\n\r\n\t\tremittances[_hashedPass].from = msg.sender;\r\n\t\tremittances[_hashedPass].recieverID = _recieverID;\r\n\t\tremittances[_hashedPass].amount = msg.value;\r\n\t\tremittances[_hashedPass].timeLimit = now + _timeLimit;\r\n\t\tremittances[_hashedPass].isEntity = true;\r\n\r\n\t\tLogTransactionCreated(_hashedPass, msg.sender, _recieverID, msg.value, _timeLimit);\r\n\t}\r\n\r\n\tfunction exchangeShop(bytes32 _passOne, bytes32 _passTwo, bytes32 _recieverID) public payable onlyWithinTimeLimit(_passOne, _passTwo) onlyOwner(){\r\n\r\n\t\tbytes32 hashToCheck = keccak256(_passOne, _passTwo);\r\n\r\n\t\trequire(remittances[hashToCheck].recieverID == _recieverID);\r\n\r\n\t\t// Here i can add some \"exchange\" commission to contractOwner (me).\r\n\t\townersCommission += remittances[hashToCheck].amount / fee;\r\n\r\n\t\tuint amount = remittances[hashToCheck].amount - remittances[hashToCheck].amount / fee;\r\n\r\n\t\t// Just for the LogRemittanceReceived.\r\n\t\taddress from = remittances[hashToCheck].from;\t\r\n\r\n\t\t// Just for tracking the local currency transactions. This is actually happening offline..\t\r\n\t\tlocalCurrency[_recieverID] += amount;\r\n\r\n\t\tdelete(remittances[hashToCheck]);\r\n\t\t\r\n\t\tLogRemittanceReceived(hashToCheck, from, _recieverID, amount);\r\n\t}\r\n\r\n\tfunction returnFundsAfterTimeLimit(bytes32 _passOne, bytes32 _passTwo) public onlyAfterTimeLimit(_passOne, _passTwo){\r\n\r\n\t\tbytes32 hashToCheck = keccak256(_passOne, _passTwo);\r\n\r\n\t\trequire(remittances[hashToCheck].from == msg.sender);\r\n\r\n\t\tuint amount = remittances[hashToCheck].amount;\r\n\t\tdelete(remittances[hashToCheck]);\r\n\t\tmsg.sender.transfer(amount);\r\n\r\n\t\tLogReturnFundsAfterTimeLimit(hashToCheck, msg.sender, amount);\r\n\t}\r\n\r\n\t// Owner can withdraw commissions\r\n\tfunction ownerWithdraw() public onlyOwner() {\r\n\t\trequire(ownersCommission > 0);\r\n\r\n\t\t// Im not sure if necessary..\r\n\t\tuint temp = ownersCommission;\r\n\t\townersCommission = 0;\r\n\t\towner.transfer(temp);\r\n\r\n\t\tLogOwnerCommissionWithdraw(ownersCommission);\r\n\t\t\r\n\t}\r\n\r\n\t// When killed all pending transactions are locked here. I don' know if thats OK.\r\n\tfunction kill() public onlyOwner() {\r\n\t\tselfdestruct(this);\t\t\r\n\t}\t\r\n}\r\n",
  "sourcePath": "D:\\DAPPS\\Projects\\Remittance\\contracts\\Remittance.sol",
  "compiler": {
    "name": "solc",
    "version": "0.4.19+commit.c4cbbb05.Emscripten.clang"
  },
  "schemaVersion": "2.0.0",
  "updatedAt": "2018-03-14T10:44:32.714Z"
}